:0400000002002132A7
:01000B0032C2
:0100130032BA
:03001B000202AA34
:1B007A00750A00750B00750C30750D30750E30750F3075103075113002001E17
:03001E000202AF2C
:20009500AF82BF01145389F0758A00758CE0D28C108D0280FBC28C803ABF0F1D5389F075EE
:2000B5008A00758CE0D28CEF600B308DFD1FC28D758CE080F2C28C801ABF6417438901D2CC
:2000D5008CEF249D500B758C3B108D0280FB1F80F0C28C22AF8274F05FF5808FA022120053
:2000F500E9D280D28275820F120095C28222AD82AE83AFF07C008D828E838FF0120698FB84
:2001150060458B82C007C006C005C0041200E9D280D28275820F120095D004D005D006D065
:2001350007C2820DBD00010E0CBC0FCA750802758200C007C006C005C00412017ED004D024
:2001550005D006D00780AF221200E9D28275820F120095C2822275823812015D75820F126E
:20017500015D75820612015D22AF8274802FFFF582C00712015DD00774C02FF58212015D5B
:2001950022AF8274F05FF580D280D28275820FC007120095D007C282EFC454F0FF74F05FD1
:2001B500F580D280D28275820F120095C28222AD82AE83AFF07C008D828E838FF012069832
:2001D500FB607674F05BF580D280D28275820FC007C006C005C004120095D004D005D0061D
:2001F500D007C2828D828E838FF0120698FBA3AD82AE83EBC454F0FB74F05BF580D280D23C
:200215008275820FC007C006C005C004120095D004D005D006D007C2820CBC0F9A750902F9
:20023500758200C007C006C005C004120292D004D005D006D0070201CC22AF8274F05FF5C6
:2002550080D28275820FC007120095D007C282EFC454F0FF74F05FF580D28275820F12008C
:2002750095C2822275822812015D75820F12024F75820612024F75826412009522AF82744D
:20029500802FFFF582C00712024FD00774C02FF58212024F22050BC28F32758951D2AF124F
:2002B500027975820112024F7F00EF240CF876300FC3EF6480948640F1750B007E14758D13
:2002D50000758B00D28E758C3BD28CEE6008108D0280FB1E80F5C28EC28C850B2375240022
:2002F50075250075260090FFFFE4F5F012058985821285831385F014F515AE8D7A00EE3320
:2003150095E0FDFCEA2512F512EE3513F513ED3514F514EC3515F515AB8BE4FE3395E0FDB8
:20033500FCEB2512FBEE3513FEED3514EC35159006B875F080C006C0031201C4D003D006B3
:200355007D007C008B828E838DF0EC1203D8AF0AEF30E7030202B7EF240CF98782C00712A4
:200375000196D0071F80E922AC82AD83AEF0FF8C178D188E198F1A7B01C3EB951650388CD4
:20039500238D248E258F268517828518838519F0E51AC007C006C005C004C0031205898543
:2003B500821785831885F019F51AD003D004D005D006D0070B80C28517828518838519F090
:2003D500E51A2285821B85831C85F01DF51E7B05750A00C3E464808BF063F08095F040035C
:2003F5000204818B1690000AE4F5F0C00312037D85821F85832085F021F522851F238520A1
:2004150024852125852226851B82851C83851DF0E51E120646AA82AD83AEF0FFD003C3E45F
:200435009AE49DE49EE464808FF063F08095F05037EB240CF974302AF7E50A70028B0A8590
:200455001F23852024852125852226851B82851C83851DF0E51EC0031205F785821B85830E
:200475001C85F01DF51ED0031B0203E875230AE4F524F525F526851B82851C83851DF0E53A
:0C0495001E1205F7AC8274302CF50C220E
:0406B800663A20007E
:2004A100F9E52345244525452660777800C308E52620E73BE52325E0F523E52433F524E536
:2004C1002533F525E52633F526E5829523E5839524E5F09525E9952650D4C3E52613F526BD
:2004E100E52513F525E52413F524E52313F523E5829523FCE5839524FDE5F09525FEE99518
:20050100264007F98EF08D838C82C3E52613F526E52513F525E52413F524E52313F523D865
:03052100CEE922FE
:20052400FB7A20E4FCFDFEFFE5822582F582E58333F583E5F033F5F0EB33FB4017DAE98010
:2005440042E5822582F582E58333F583E5F033F5F0EB33FBEC33FCED33FDEE33FEEF33FF3F
:20056400EC9523ED9524EE9525EF95264013EC9523FCED9524FDEE9525FEEF9526FF438231
:0505840001DABEEB22CC
:06005000E478FFF6D8FD84
:20002E007900E94400601B7A009006BC780075A000E493F2A308B8000205A0D9F4DAF275B7
:02004E00A0FF11
:20058900AAF0FBE5828523F0A4FCADF0E5838523F0A42DFDE435F0FEE5828524F0A42DFDDE
:2005A900E5F03EFEE433FFEA8523F0A42EFEE5F03FFFE5838524F0A42EFEE5F03FFFE5825B
:2005C9008525F0A42EFEE5F03FFFEB8523F0A42FFFEA8524F0A42FFFE5838525F0A42FFF17
:0E05E900E5828526F0A42F8EF08D838C822271
:200056007800E84400600A790075A000E4F309D8FC7800E84400600C7900900000E4F0A3AA
:04007600D8FCD9FADF
:2005F700F9C2D530E715D2D5E4C39582F582E49583F583E495F0F5F0E499F9E52630E715DD
:20061700E4C39523F523E49524F524E49525F525E49526F526E91204A130D512E4C39582AF
:0F063700F582E49583F583E495F0F5F0E49922DC
:20064600FBC2D530E715D2D5E4C39582F582E49583F583E495F0F5F0E49BFBE52630E71785
:20066600B2D5E4C39523F523E49524F524E49525F525E49526F526EB12052430D513FBE431
:12068600C39582F582E49583F583E495F0F5F0E49B22AE
:0D0021007581261206B4E582600302001E00
:1C06980020F71430F6148883A88220F507E6A88375830022E280F7E49322E02271
:0406B4007582002229
:00000001FF
